:020000040800F2
:1000000000000220C12800085D2700085F270008C3
:10001000612700086327000865270008000000002A
:10002000000000000000000000000000672700083A
:1000300069270008000000006B2700086D270008F2
:1000400011290008112900081129000811290008A8
:100050001129000811290008112900081129000898
:100060001129000811290008112900081129000888
:100070001129000811290008112900081129000878
:100080001129000811290008112900081129000868
:100090001129000811290008112900081129000858
:1000A0001129000811290008112900081129000848
:1000B0001129000811290008112900081129000838
:1000C0001129000811290008112900081129000828
:1000D0001129000811290008112900081129000818
:1000E0001129000811290008112900081129000808
:1000F00011290008112900081129000811290008F8
:1001000011290008112900081129000811290008E7
:1001100011290008112900081129000811290008D7
:1001200011290008112900081129000811290008C7
:1001300011290008112900081129000811290008B7
:1001400011290008112900081129000811290008A7
:100150001129000811290008112900081129000897
:100160001129000811290008112900081129000887
:1001700011290008112900081129000800000000B9
:080180001129000811290008F3
:1001880010B5054C237833B9044B13B10448AFF3C9
:1001980000800123237010BDEC2600200000000021
:1001A800DC2A000808B5034B1BB103490348AFF329
:1001B800008008BD00000000F0260020DC2A0008AE
:1001C80081F0004102E000BF83F0004330B54FEA00
:1001D80041044FEA430594EA050F08BF90EA020F6D
:1001E8001FBF54EA000C55EA020C7FEA645C7FEA00
:1001F800655C00F0E2804FEA5454D4EB5555B8BF23
:100208006D420CDD2C4480EA020281EA030382EA93
:10021800000083EA010180EA020281EA0303362D25
:1002280088BF30BD11F0004F4FEA01314FF4801CF8
:100238004CEA113102D0404261EB410113F0004F0A
:100248004FEA03334CEA133302D0524263EB4303C1
:1002580094EA050F00F0A780A4F10104D5F1200E5F
:100268000DDB02FA0EFC22FA05F2801841F10001BA
:1002780003FA0EF2801843FA05F359410EE0A5F18E
:1002880020050EF1200E012A03FA0EFC28BF4CF0BF
:10029800020C43FA05F3C01851EBE37101F0004575
:1002A80007D54FF0000EDCF1000C7EEB00006EEB82
:1002B8000101B1F5801F1BD3B1F5001F0CD349080C
:1002C8005FEA30004FEA3C0C04F101044FEA445263
:1002D80012F5800F80F09A80BCF1004F08BF5FEAEA
:1002E800500C50F1000041EB045141EA050130BDCA
:1002F8005FEA4C0C404141EB010111F4801FA4F16D
:100308000104E9D191F0000F04BF01460020B1FAC1
:1003180081F308BF2033A3F10B03B3F120020CDAF9
:100328000C3208DD02F1140CC2F10C0201FA0CF0D7
:1003380021FA02F10CE002F11402D8BFC2F1200C3C
:1003480001FA02F120FA0CFCDCBF41EA0C019040F2
:10035800E41AA2BF01EB0451294330BD6FEA04043B
:100368001F3C1CDA0C340EDC04F11404C4F1200226
:1003780020FA04F001FA02F340EA030021FA04F338
:1003880045EA030130BDC4F10C04C4F1200220FA8F
:1003980002F001FA04F340EA0300294630BD21FACD
:1003A80004F0294630BD94F0000F83F4801306BF93
:1003B80081F480110134013D4EE77FEA645C18BF87
:1003C8007FEA655C29D094EA050F08BF90EA020F1E
:1003D80005D054EA000C04BF1946104630BD91EA16
:1003E800030F1EBF0021002030BD5FEA545C05D119
:1003F8004000494128BF41F0004130BD14F5800458
:100408003CBF01F5801130BD01F0004545F0FE41CB
:1004180041F470014FF0000030BD7FEA645C1ABF00
:10042800194610467FEA655C1CBF0B46024650EA37
:10043800013406BF52EA033591EA030F41F4002163
:1004480030BD00BF90F0000F04BF0021704730B5E9
:100458004FF4806404F132044FF000054FF00001BE
:1004680050E700BF90F0000F04BF0021704730B57F
:100478004FF4806404F1320410F0004548BF404254
:100488004FF000013EE700BF42004FEAE2014FEAA9
:1004980031014FEA02701FBF12F07F4393F07F4F84
:1004A80081F06051704792F0000F14BF93F07F4FB6
:1004B800704730B54FF4607401F0004521F00041F9
:1004C80020E700BF50EA010208BF704730B54FF07F
:1004D80000050AE050EA010208BF704730B511F084
:1004E800004502D5404261EB41014FF4806404F1BC
:1004F80032045FEA915C3FF4DCAE4FF003025FEA3E
:10050800DC0C18BF03325FEADC0C18BF033202EBC5
:10051800DC02C2F1200300FA03FC20FA02F001FA1F
:1005280003FE40EA0E0021FA02F11444C1E600BFBE
:1005380070B54FF0FF0C4CF4E06C1CEA11541DBF71
:100548001CEA135594EA0C0F95EA0C0F00F0DEF83C
:100558002C4481EA030621EA4C5123EA4C5350EA21
:10056800013518BF52EA033541F4801143F4801372
:1005780038D0A0FB02CE4FF00005E1FB02E506F003
:100588000042E0FB03E54FF00006E1FB03569CF058
:10059800000F18BF4EF0010EA4F1FF04B6F5007F5E
:1005A80064F5407404D25FEA4E0E6D4146EB0606D0
:1005B80042EAC62141EA55514FEAC52040EA5E5059
:1005C8004FEACE2EB4F1FD0C88BFBCF5E06F1ED803
:1005D800BEF1004F08BF5FEA500E50F1000041EB3A
:1005E800045170BD06F0004646EA010140EA0200E7
:1005F80081EA0301B4EB5C04C2BFD4EB0C0541EA09
:10060800045170BD41F480114FF0000E013C00F31D
:10061800AB8014F1360FDEBF002001F0004170BD41
:10062800C4F10004203C35DA0C341BDC04F114045A
:10063800C4F1200500FA05F320FA04F001FA05F2E6
:1006480040EA020001F0004221F0004110EBD370B3
:1006580021FA04F642EB06015EEA430E08BF20EADF
:10066800D37070BDC4F10C04C4F1200500FA04F382
:1006780020FA05F001FA04F240EA020001F0004114
:1006880010EBD37041F100015EEA430E08BF20EA87
:10069800D37070BDC4F1200500FA05F24EEA020ECF
:1006A80020FA04F301FA05F243EA020321FA04F0FE
:1006B80001F0004121FA04F220EA020000EBD370B5
:1006C8005EEA430E08BF20EAD37070BD94F0000FB5
:1006D8000FD101F00046400041EB010111F4801FE9
:1006E80008BF013CF7D041EA060195F0000F18BF9A
:1006F800704703F00046520043EB030313F4801FD6
:1007080008BF013DF7D043EA0603704794EA0C0F8F
:100718000CEA135518BF95EA0C0F0CD050EA4106A5
:1007280018BF52EA4306D1D181EA030101F0004122
:100738004FF0000070BD50EA410606BF104619464A
:1007480052EA430619D094EA0C0F02D150EA013656
:1007580013D195EA0C0F05D152EA03361CBF104697
:1007680019460AD181EA030101F0004141F0FE4136
:1007780041F470014FF0000070BD41F0FE4141F4BA
:10078800780170BD70B54FF0FF0C4CF4E06C1CEABA
:1007980011541DBF1CEA135594EA0C0F95EA0C0F6F
:1007A80000F0A7F8A4EB050481EA030E52EA03352A
:1007B8004FEA013100F088804FEA03334FF080554B
:1007C80045EA131343EA12634FEA022245EA111578
:1007D80045EA10654FEA00260EF000419D4208BF29
:1007E800964244F1FD0404F5407402D25B084FEAD6
:1007F8003202B61A65EB03055B084FEA32024FF482
:1008080080104FF4002CB6EB020E75EB030E22BFDE
:10081800B61A754640EA0C005B084FEA3202B6EB9E
:10082800020E75EB030E22BFB61A754640EA5C004D
:100838005B084FEA3202B6EB020E75EB030E22BFDD
:10084800B61A754640EA9C005B084FEA3202B6EBDE
:10085800020E75EB030E22BFB61A754640EADC009D
:1008680055EA060E18D04FEA051545EA16754FEAFF
:1008780006164FEAC30343EA52734FEAC2025FEA1D
:100888001C1CC0D111F4801F0BD141EA00014FF0AC
:1008980000004FF0004CB6E711F4801F04BF01437D
:1008A8000020B4F1FD0C88BFBCF5E06F3FF6AFAE99
:1008B800B5EB030C04BFB6EB020C5FEA500C50F129
:1008C800000041EB045170BD0EF0004E4EEA1131AC
:1008D80014EB5C04C2BFD4EB0C0541EA045170BDB3
:1008E80041F480114FF0000E013C90E645EA060EF7
:1008F8008DE60CEA135594EA0C0F08BF95EA0C0F25
:100908003FF43BAF94EA0C0F0AD150EA01347FF46C
:1009180034AF95EA0C0F7FF425AF104619462CE743
:1009280095EA0C0F06D152EA03353FF4FDAE1046A6
:10093800194622E750EA410618BF52EA43067FF4F7
:10094800C5AE50EA41047FF40DAF52EA43057FF487
:10095800EBAE12E74A0011D212F5001211D20DD5F2
:100968006FF47873B3EB62520ED44FEAC12343F0AD
:10097800004343EA505323FA02F070474FF0000057
:10098800704750EA013002D14FF0FF3070474FF006
:100998000000704753B94AB9002908BF00281CBF96
:1009A8004FF0FF314FF0FF3000F07AB9ADF1080C8D
:1009B8006DE904CE00F006F8DDF804E0DDE9022375
:1009C80004B070472DE9F0478C460D460446089E52
:1009D800002B51D18A4217466DD9B2FA82FEBEF178
:1009E800000F0BD0CEF1200C01FA0EF520FA0CFC0A
:1009F80002FA0EF74CEA050C00FA0EF44FEA174A11
:100A0800250CBCFBFAF81FFA87F90AFB18CC45EA53
:100A18000C4508FB09F3AB420AD9ED1908F1FF327E
:100A280080F02381AB4240F22081A8F102083D44C6
:100A3800ED1AA4B2B5FBFAF00AFB105544EA0544D6
:100A480000FB09F9A14509D9E41900F1FF3380F049
:100A58000A81A14540F2078102383C44A4EB09040D
:100A680040EA08400021002E61D024FA0EF4002349
:100A780034607360BDE8F0878B4207D9002E54D0EC
:100A8800002186E821000846BDE8F087B3FA83F123
:100A9800002940F08E80AB4202D3824200F2FA80F5
:100AA800841A65EB03050120AC46002E3FD086E88A
:100AB8001010BDE8F08712B90127B7FBF2F7B7FAB3
:100AC80087FEBEF1000F34D1EB1B3A0C1FFA87FCEE
:100AD8000121B3FBF2F8250C02FB183345EA034564
:100AE8000CFB08F3AB4207D9ED1908F1FF3002D22D
:100AF800AB4200F2D1808046ED1AA3B2B5FBF2F00A
:100B080002FB105543EA05440CFB00FCA44507D939
:100B1800E41900F1FF3302D2A44500F2B880184668
:100B2800A4EB0C0440EA08409DE731463046BDE896
:100B3800F087CEF1200405FA0EF307FA0EF720FA33
:100B480004F83A0C25FA04F448EA0308B4FBF2F175
:100B58004FEA184502FB11441FFA87FC45EA044591
:100B680001FB0CF3AB4200FA0EF409D9ED1901F1BF
:100B7800FF3080F08A80AB4240F2878002393D44E2
:100B8800EB1A1FFA88F5B3FBF2F002FB103345EAC3
:100B9800034500FB0CF3AB4207D9ED1900F1FF3810
:100BA8006FD2AB426DD902383D44EB1A40EA01419D
:100BB8008FE7C1F1200722FA07F88B4005FA01F404
:100BC80048EA030320FA07FE4FEA134CFD404EEAB9
:100BD800040EB5FBFCF94FEA1E440CFB19551FFA2D
:100BE80083F844EA054509FB08F4AC4202FA01F22D
:100BF80000FA01FA08D9ED1809F1FF3043D2AC42E6
:100C080041D9A9F102091D442D1B1FFA8EFEB5FB1F
:100C1800FCF00CFB10554EEA054400FB08F8A04513
:100C280007D9E41800F1FF3529D2A04527D90238A1
:100C38001C4440EA0940A4EB0804A0FB02894C4587
:100C4800C6464D4615D312D056B1BAEB0E0364EB27
:100C5800050404FA07F7CB401F43CC4037607460A3
:100C68000021BDE8F0871846F8E69046E0E6C24560
:100C7800EAD2B8EB020E69EB03050138E4E728462F
:100C8800D7E7404691E78146BEE7014678E7023854
:100C98003C4445E7084608E7A8F102083D442BE72D
:100CA800704700BF38B50E4A0E4B054618784FF40A
:100CB8007A73B3FBF0F31068B0FBF3F000F09CF824
:100CC800044658B90F2D09D8024629464FF0FF307F
:100CD80000F05EF8044B20461D6038BD012038BD89
:100CE80084260020000000200400002008B50B4BDB
:100CF8001A6842F400721A601A6842F480621A6034
:100D08001A6842F480721A60032000F02FF800205D
:100D1800FFF7C8FF01F0B0FC002008BD003C02400E
:100D2800034A044B11681B780B441360704700BFDB
:100D38002827002000000020014B1868704700BFDA
:100D48002827002038B50446FFF7F6FF631C1CBFB0
:100D5800054B1B78054618BFE418FFF7EDFF401B4D
:100D68008442FAD838BD00BF00000020074AD36883
:100D780023F4E0631B041B0C43F0BF63000243F43D
:100D8800003300F4E0600343D360704700ED00E0F7
:100D9800174B30B5DC68C4F30224C4F10703251DE2
:100DA800042B28BF0423062D4FF0010505FA03F391
:100DB80003F1FF338CBF033C00241940A14005FA1E
:100DC80004F4013C2240002842EA01024FEA0212E0
:100DD800AFBF00F1604000F00F00064BD2B2A5BFD4
:100DE80000F56140D2B21A5480F8002330BD00BF2C
:100DF80000ED00E014ED00E00138B0F1807F0AD288
:100E0800064B074A5860F02182F823100020072279
:100E180098601A6070470120704700BF10E000E03A
:100E280000ED00E0044B1A6804280CBF42F00402ED
:100E380022F004021A60704710E000E0704708B51D
:100E4800FFF7FCFF08BD00002DE9F04F85B00B68E7
:100E5800DFF8AC81684ADFF8AC91019300234FF0CA
:100E6800010E019C0EFA03FE0EEA0406B64540F098
:100E7800AE804C6824F01007022F16D14FEAD30A2F
:100E880000EB8A0A03F0070BDAF820504FEA8B0BC5
:100E98004FF00F0C0CFA0BFC25EA0C0C0D6905FA47
:100EA8000BF545EA0C05CAF820504FEA430A03251A
:100EB800D0F800B005FA0AF5ED4304F0030C0BEA8C
:100EC800050B0CFA0AFC013F4CEA0B0C012FC0F889
:100ED80000C011D8876807EA050BCF6807FA0AFC33
:100EE8004CEA0B078760476827EA0E0EC4F3001721
:100EF8009F4047EA0E074760C7683D408F6807FA7A
:100F08000AF73D43C560E50061D54FF0000BCDF809
:100F18000CB0D8F84470394D47F48047C8F844708D
:100F2800D8F8447007F480470397039F23F003071A
:100F380007F1804707F59C3703F0030CD7F808A0A2
:100F48004FEA8C0C4FF00F0E0EFA0CFEA8422AEA5C
:100F58000E0E43D005F58065A84241D005F58065A1
:100F6800A8423FD005F58065A8423DD005F58065CB
:100F7800A8423BD048453BD005F50065A84239D08A
:100F880005F58065A84214BF0825072505FA0CF564
:100F980045EA0E05BD601568F74314F4803F0CBFA1
:100FA8003D4035431560556814F4003F0CBF3D4083
:100FB80035435560956814F4801F0CBF3D40354398
:100FC8009560D568A40254BF3D403543D5600133D0
:100FD800102B7FF444AF05B0BDE8F08F5D46D5E730
:100FE8000125D3E70225D1E70325CFE70425CDE77F
:100FF8000525CBE70625C9E7003C01400000024073
:1010080000380240001402400369194214BF01204D
:10101800002070470AB1816170470904FBE70000AE
:101028002DE9F341044618B9012002B0BDE8F0816A
:101038000368DD0710D42368980758D423681A0773
:1010480000F19A8023685B0700F1B880A269002A42
:1010580040F019810020E8E7A64B9A6802F00C02DC
:10106800042A07D09A6802F00C02082A0AD15B68A1
:10107800590207D59F4B1B689A03DCD56368002B80
:10108800D9D1D1E763689B4DB3F5803F11D12B6867
:1010980043F480332B60FFF74FFE964D06462B68CE
:1010A8009B03C8D4FFF748FE801B6428F7D90320A8
:1010B800BBE7B3F5A02F04D12B6843F480232B6042
:1010C800E5E72A6822F480322A602A6822F480221E
:1010D8002A60002BDFD1FFF72FFE06462B689F03FF
:1010E800A9D5FFF729FE801B6428F7D9DFE7814BD4
:1010F8009A6812F00C0F07D09A6802F00C02082ABE
:1011080011D15B685E020ED47A4B1A68950702D536
:10111800E268012A88D11A68216922F0F80242EAB5
:10112800C1021A608AE7E268734BB2B101221A6001
:10113800FFF702FE6F4D06462B68980707D52B6808
:10114800226923F0F80343EAC2032B6076E7FFF72E
:10115800F3FD801B0228EFD9A9E71A60FFF7ECFD21
:10116800644D06462B6899077FF568AFFFF7E4FDE5
:10117800801B0228F6D99AE76269604B7AB101228E
:101188001A60FFF7D9FD5B4D06466B6F9F073FF569
:1011980059AFFFF7D1FD801B0228F6D987E71A60FF
:1011A800FFF7CAFD534D06466B6F98077FF54AAFA8
:1011B800FFF7C2FD801B0228F6D978E74D4B1A6C61
:1011C80012F0805228D101921A6C42F080521A64AF
:1011D8001B6C03F080530193019B0126484D2B683B
:1011E800D9051BD5A368434D012B27D12B6F43F09D
:1011F80001032B67FFF7A0FD3E4D074641F28838F3
:101208002B6F9B0739D5002E3FF420AF394A136C5A
:1012180023F08053136419E70026DFE72B6843F4B3
:1012280080732B60FFF788FD07462B68DA05D9D451
:10123800FFF782FDC01B0228F7D938E7052B04D138
:101248002B6F43F004032B67D0E72A6F22F00102CB
:101258002A672A6F22F004022A67002BCAD1FFF7F7
:101268006BFD41F2883807462B6F9807CBD5FFF7FF
:1012780063FDC01B4045F7D919E7FFF75DFDC01BAB
:101288004045BDD913E71B4DAB6803F00C03082B91
:101298003FF4CAAE1B4E0023022A336034D1FFF755
:1012A8004BFD07462B6899011ED4226AE369134354
:1012B800626A43EA8213E26A43EA0263A26A0D4C55
:1012C8005208013A43EA02436B6001233360FFF797
:1012D80033FD054623689A013FF5BCAEFFF72CFDA8
:1012E800401B0228F6D9E2E6FFF726FDC01B0228BC
:1012F800D8D9DCE60038024000004742800E474259
:101308000070004060004742FFF716FD04462B6856
:101318009B017FF59FAEFFF70FFD001B0228F6D952
:10132800C5E600BF134908B58B6803F00C03042B0E
:1013380003D0082B03D0104808BD104808BD4A68E0
:101348004B68496813F4800314BF0C480A48C1F37A
:10135800881118BF002302F03F02A1FB0001FFF72C
:1013680019FB044B5B68C3F3014301335B00B0FB1B
:10137800F3F008BD003802400024F40000127A009F
:101388002DE9F0410D46044610B90120BDE8F08171
:10139800444B1A6802F00F028A4228D321688F074B
:1013A8002DD4C80740D43F4B1A6802F00F0295426B
:1013B80066D3226851076CD4130707D53A4A2169C6
:1013C800936823F4604343EAC1039360FFF7AAFFDD
:1013D800354B364A9B68C3F30313D35CD840344B70
:1013E80018600020FFF75EFC0020BDE8F081CAB25B
:1013F8001A701B6803F00F039942C6D1CEE72A4B37
:1014080011F0040F1EBF9A6842F4E0529A600E076A
:1014180042BF9A6842F460429A609A68A06822F0D3
:10142800F00202439A60BCE762681F4B012A1DD193
:101438001B6813F4003FA8D01B4EB36823F00303C6
:101448001343B360FFF778FC41F288380746B36866
:10145800626803F00C03B3EB820FA4D0FFF76CFCB7
:10146800C01B4045F3D90320BDE8F081911E012936
:101478001B6802D813F0007FDDE713F0020FDAE7EC
:10148800EAB21A701B6803F00F039D427FF47DAF28
:101498008FE70549E0688B6823F4E05303438B60CA
:1014A8008AE700BF003C024000380240602B000879
:1014B80084260020014B1868704700BF842600204E
:1014C8002DE9F041069E0446884617461D462268C7
:1014D800936838EA03030CBF012300239F4202D11B
:1014E8000020BDE8F0816B1CF2D055BB23685A6818
:1014F80022F0E0025A606268B2F5827F0AD1A268DF
:10150800B2F5004F02D0B2F5806F03D11A6822F00D
:1015180040021A60A26AB2F5005F09D11A6822F483
:1015280000521204120C1A601A6842F400521A602F
:10153800012384F85130002384F850300320BDE89B
:10154800F081FFF7F9FB801B8542C0D8CEE713B5C1
:101558000B460092802100220446FFF7B1FF20B11C
:10156800636D43F020036365032002B010BD10B51E
:101578000446002836D00023836290F8513003F0E7
:10158800FF021BB980F8502001F0BEF82168A0685E
:10159800A269022384F851300B6823F040030B60E2
:1015A80063680343E06803432069034360690343B6
:1015B800E0690343206A0343A06A034302F400700E
:1015C80003430B60120C636A02F004021A434A6078
:1015D800CB6923F40063CB6100200123606584F8A4
:1015E800513010BD012010BD2DE9FF411E4690F875
:1015F8005030012B04460D46904600F09C80012394
:1016080080F85030FFF798FB074694F85100C0B2B5
:10161800012840F08E80002D4ED0B8F1000F4BD03D
:10162800032384F8513000236365A363A4F836804C
:10163800A387E38763642364A3682563B3F5004F36
:101648002368A4F8348002BF1A6842F480421A6002
:101658001A6852065EBF1A6842F040021A60E268D1
:10166800B2F5006F626838D11AB1E28E92B2012ADF
:1016780006D135F8022BDA60E38E013B9BB2E38694
:10168800E38E9BB293B9009733460122022120468C
:10169800FFF716FF78B93A4631462046FFF757FF5D
:1016A800002838D020236365012005E023689A6864
:1016B8009007DED44EB90320012384F8513000236B
:1016C80084F8503004B0BDE8F081711CD8D0FFF721
:1016D80033FBC01B8642D3D8EDE71AB1E28E92B233
:1016E800012A06D115F8012B1A73E38E013B9BB230
:1016F800E386E38E9BB2002BC5D023689A689207D5
:10170800F0D4002ED7D0731CF3D0FFF715FBC01B05
:101718008642EED8CFE7A36833B903932368DA6823
:1017280003929B680393039B606D003018BF0120F0
:10173800C2E70220C0E70220C4E72DE9F04399463A
:1017480090F8503085B0012B04460D4616460C9F84
:1017580000F0ED80012380F85030FFF7EDFA94F89F
:1017680051306168DBB2012B80460AD0B1F5827F27
:1017780040F0DB80A268002A40F0D780042B40F0BC
:10178800D480002D4ED0002E4CD0B9F1000F49D096
:1017980094F85130A663012B04BF052384F8513017
:1017A80000236365236463642368A4F83E90A4F867
:1017B80036901A68A4F83C90500658BF1A682563FA
:1017C80058BF42F04002A4F8349058BF1A60E2684B
:1017D800B2F5006F5DD119B1E28E92B2012A06D13D
:1017E80035F8022BDA60E38E013B9BB2E3864FF0BB
:1017F8000109E38E9BB2BBB9E38F9BB2A3B9CDF8C5
:1018080000803B46012202212046FFF759FE0028AE
:1018180035D1424639462046FFF799FE002879D04F
:101828002023636501202BE0B9F1000F0FD0E38E70
:101838009BB263B123689A68910708D535F8022BE3
:10184800DA60E38E013B9BB2E3864FF00009E38F39
:101858009BB263B123689A68D20708D5DB6826F87B
:10186800023BE38F013B9BB2E3874FF00109781CF1
:10187800BFD0FFF761FAA0EB08008742B9D8032070
:10188800012384F85130002384F8503005B0BDE8B6
:10189800F08319B1E28E92B2012A06D115F8012B14
:1018A8001A73E38E013B9BB2E3864FF00109E38E86
:1018B8009BB21BB9E38F9BB2002BA0D0B9F1000FEC
:1018C8000FD0E38E9BB263B123689A68910708D55D
:1018D8002A781A73E38E013B9BB2E38601354FF0F9
:1018E8000009E38F9BB263B123689A68D20708D5D1
:1018F800DB683370E38F013B9BB2E38701364FF01F
:1019080001097B1CD3D0FFF717FAA0EB0800874228
:10191800CDD8B4E7A368002BB2D123680390DA6866
:1019280003929B680393039BAAE70220A8E702207F
:10193800ACE70000044A962322F8023F0A3B9BB218
:10194800002BF9D1704700BF82270020F0B5002096
:1019580085B000F018FD194B03934FF6FF7500266C
:1019680004238DE86800022201232821322000F098
:10197800BBFC134B0393022701231A4602960195D9
:10198800009750211E2000F0AFFC01240D4B03935B
:10199800224623460296019500949621642000F081
:1019A800A3FC094B03930296019500972346224610
:1019B800B921282000F098FC05B0F0BD0B2B0008D9
:1019C800162B0008302B0008472B0008B0F5A07F25
:1019D8002DE9F0410F4624DC84B204F12906B6B2A1
:1019E80007F13D050A463046ADB24CF2FF730121BE
:1019F80000F0B5FC294630464CF2FF73D72200F0C0
:101A0800AEFC3A4620464FF4FC63012100F0A7FCE7
:101A1800294620464FF4FC63D722BDE8F04100F088
:101A28009EBCBDE8F081000013B500F11803C11E8B
:101A38004CF2FF72044600929BB28D2289B26E204E
:101A480000F0D0FB0520FFF77DF9054B00931A2223
:101A5800132321466E2000F0D9FB02B010BD00BF51
:101A680008000020F0B587B000230D4617464FF652
:101A7800E07601F1140204468DF814308DF8153023
:101A88008DF816300096EF2392B2DF21284600F039
:101A9800A9FB092C0BD83034E4B2019400963B46DC
:101AA8000222DF21284600F0D3FB07B0F0BD0A224E
:101AB800B4FBF2F303F1300102FB134405AB0393CB
:101AC8000223009301238DF81410303402960197F5
:101AD8001A46DF2128468DF8154000F005FCE4E79A
:101AE80070B586B04CF2FF756E23D2221E213220CB
:101AF800009500F077FB2A4B03934FF478460323B5
:101B08008DE8480002231A4628215A20029500F041
:101B1800EBFB0224234B0393029523460196009482
:101B2800224646215F2000F0DFFB00238DF81430A9
:101B38008DF815308DF816301B4B1B88092B17D8DC
:101B48003033DBB201930095334622464621A52067
:101B580000F07EFB40F2DC50FFF7F4F8134B0093E3
:101B68003122302364218C2000F050FB06B070BD78
:101B78000A21B3FBF1F201FB1233303302F13000DA
:101B88008DF8153005AB8DF81400039302958DE898
:101B98005000234622464621A52000F0A5FBD9E7A0
:101BA800F42A0008032B000810270020E403002073
:101BB8002DE9F84305460C469146984600F000FE8C
:101BC8000746B0B9902000F001FE012100F040FE68
:101BD8000646D02000F0FAFD394600F039FEB5423D
:101BE80007D24D44AE4204DA844202D24444A042B1
:101BF80002DB0020BDE8F8830120BDE8F88300007F
:101C0800F0B585B0FFF796FE334B344E4FF4A07411
:101C18001C80334B00254FF4167235801A8000F073
:101C280099FE0F2390FBF3F3C3EB0313C31A2D4A5A
:101C380032F813302C4A13802C4A642717802C4A18
:101C480017802C4A14802C4A4CF2FF70138000F045
:101C58009AFB2A4B0093394613231A226E2000F070
:101C6800D5FA274B0093224628464FF6E074052301
:101C7800D72100F0CBFA00942846EF2340F23F1218
:101C8800DC2100F0AFFA1F4B0393022501231F2725
:101C98001A4602948DE8A000DF210A2000F024FBF8
:101CA8003A4630884B21FFF7DDFE174B0393029429
:101CB80001234FF21F041A4601940095DF21B42036
:101CC80000F012FB114B188822464FF4967105B0AC
:101CD800BDE8F040FFF7C6BE1227002010270020FD
:101CE80014270020842700200A2700200C27002022
:101CF80018270020162700200827002008000020A9
:101D080044160020032B0008FE2A00080E27002096
:101D180010B594B0284B002101911A6C42F0805202
:101D28001A641B6C03F080530193019B234B0291AF
:101D38001A6842F480421A601B6803F480430293D5
:101D4800029B012308934FF4803309934FF48003D7
:101D58000F93082310934FF4A8730224119308A833
:101D680007230E9412941393FFF75AF900B1FEE774
:101D78000F2303934FF4A0530590069305214FF4C6
:101D8800805303A804940793FFF7FAFA044600B1B6
:101D9800FEE7FFF78FFB4FF47A73B0FBF3F0FFF722
:101DA8002BF80420FFF73EF8224621464FF0FF307B
:101DB800FEF7EEFF14B010BD00380240007000407E
:101DC8002DE9F04F8BB00024FEF790FFFFF7A0FF3E
:101DD800A54B01941A6BA54842F010021A631A6BBE
:101DE80002F010020192019A02941A6B42F08002EA
:101DF8001A631A6B02F080020292029A03941A6B19
:101E080042F002021A631A6B02F002020392039A6A
:101E180004941A6B42F008021A631B6B03F0080360
:101E2800049301224FF6FF71049BFFF7F3F8012298
:101E38004FF480618E48FFF7EDF80122F8218D48B4
:101E4800FFF7E8F8224680218948FFF7E3F80325E1
:101E58004FF6FF73012605A9844805930794089552
:101E68000696FEF7F1FF4FF4906305A980480593A5
:101E7800079408950696FEF7E7FF022305A97D4813
:101E8800059306940794FEF7DFFFF82305A9794820
:101E98000593079408950696774DFEF7D5FF774A80
:101EA800AC604FF4827385E80C004FF40073AB61AB
:101EB8001823EB6128460A23EC602C616C612C62C4
:101EC8006C62AC62EB62FFF752FB044600B1FEE7BE
:101ED8002846FFF74CFB00F06DFA00F066FAFFF7B2
:101EE80035FDDFF8B481DFF8B4A100F069FC002803
:101EF800FBD1002C40F08680B8F80040FFF780FE48
:101F0800BAF800309C4208DD4FF21F024FF4967178
:101F18002046AAF80040FFF7A5FD594E594C002766
:101F2800574BDFF87CB1B3F90030462B0FD14FF493
:101F3800A073238000F00EFD0F2390FBF3F3C3EB97
:101F48000313C31A504A32F81330ABF80030B4F90F
:101F58000030DFF85091462B0FD14FF4A073338037
:101F680000F0F8FC0F2390FBF3F3C3EB0313C31A41
:101F7800454931F81330A9F80030B9F80010B6F91E
:101F88000000424DFFF722FDBBF80010B4F9000035
:101F9800FFF71CFD00F014FC00283ED12B88053B00
:101FA8002B800127B6F90000394B3A494628D9BF9A
:101FB80022881A801880B9F80020D8BFBBF8002002
:101FC8001B88013A882B0A8007D1B5F900000A88D6
:101FD800904214DD2832904211DC0A88B5F90000DD
:101FE800511C884203DCA3F14601422907D9283253
:101FF800904202DD463B422B01D9C32813DDFFF78F
:102008006FFD08E03023312264218C20FFF7D0FDDA
:1020180000287FF471AF012467E7002FC2D02B8816
:1020280002332B80BEE7B6F90030452B03D0B4F954
:102038000030452B09D1B8F80000013080B21F22CA
:102048004B21A8F80000FFF70DFD47B12888FFF7DE
:10205800EBFC3388013B33802388013B23800A2033
:10206800FEF770FE5CE700BF003802400010024037
:1020780000040240000C02402C270020003C0040D5
:10208800122700201427002084270020182700206A
:102098001627002008270020102700200E270020E0
:1020A8000C2700200A27002070B5114C114D064658
:1020B800002220464021FEF7ADFF284600224FF4BB
:1020C8008061FEF7A7FF0C4B20465E6100222021AD
:1020D800FEF7A0FF204601222021FEF79BFF28469D
:1020E80001224FF48061BDE87040FEF793BF00BF46
:1020F800000C0240000402400010024070B5114C70
:10210800114D0646012220464021FEF783FF28464E
:1021180000224FF48061FEF77DFF0C4B20465E6184
:1021280000222021FEF776FF204601222021FEF71B
:1021380071FF284601224FF48061BDE87040FEF728
:1021480069BF00BF000C02400004024000100240BA
:1021580010B50C46FFF7A8FF2046BDE81040FFF772
:10216800CDBF01EB032370B504460D46442099B258
:102178001646FFF7EDFF21464520FFF7E9FF3146F8
:102188004620FFF7E5FF29464E20FFF7E1FF2146ED
:102198004F20FFF7DDFF2220BDE87040FFF784BF26
:1021A800F8B50F4C06460F461546204600224FF458
:1021B8008061FEF72FFF39464E20FFF7C9FF3146F1
:1021C8004F20FFF7C5FF29462220FFF7C1FF204611
:1021D80001224FF48061BDE8F840FEF71BBF00BF45
:1021E8000004024070B5141A5D1A0134013514FB5D
:1021F80005F4BDF81060A4B2FFF7B3FF04B970BDD1
:102208003046013CFFF77AFFA4B2F7E72DE9F04723
:102218000B44089F81460C4690461FFA83FA002516
:10222800544513D0002607E0484437F813202146C8
:1022380080B2FFF7B5FF0136B0B22B18B0459BB29C
:10224800F2D145440134ADB2A4B2E9E7BDE8F08764
:102258002DE9F04F89B0002A14BF164601260593D0
:10226800BDF8483006939DF84C301E4A8B46203BFB
:102278000A2101FB0323A3F1020A083304930BF19B
:10228800FF33441E334434449BB20546A4B207933B
:102298003AF8023F079F0393D8464FF00009039B83
:1022A80043FA09F3DB074CBF059B069B00934146A5
:1022B8003B462246284609F10109FFF793FFB0443F
:1022C8003744B9F1070F1FFA88F8BFB2E7D1049B6A
:1022D800354434449A45ADB2A4B2D9D109B0BDE869
:1022E800F08F00BFC42200202DE9F04F85B00D46C5
:1022F800119FBDF83C100291BDF84010BDF8386040
:102308000391824647B3C6EBC608984406EB86039A
:102318001A441FFA88F81FFA82FB04463B780A2BF6
:102328000ABF07F10109B946454499F800300193FD
:1023380008BF5446039B009308BFADB2029B2046DA
:1023480032462946FFF784FF99F801305C4409F1C9
:102358000107A4B2002BE1D105B0BDE8F08F91428E
:10236800F8B506460D4614461F4601D915460C46D3
:10237800A54200DDF8BD21463A463046013CFFF74C
:102388000FFFA4B2F4E770B5064600240025A8B2F2
:10239800324621460135FFF703FFB5F5A07FF6D198
:1023A8000134A4B2F02CF1D170BD4FF6FF70FFF7E5
:1023B800EABF000010B5AE4C012208212046FEF706
:1023C80029FE6420FEF7BEFC002208212046FEF705
:1023D80021FE6420FEF7B6FC204601220821FEF704
:1023E80019FE01224FF48061A248FEF713FE204631
:1023F80001221021FEF70EFE012220212046FEF7C1
:1024080009FE6420FEF79EFC01210020FFF7A0FED4
:102418000120FEF797FC4AF6A4010320FFF798FE77
:102428000120FEF78FFC00210C20FFF791FE012010
:10243800FEF788FC40F60C010D20FFF789FE01200D
:10244800FEF780FC4FF42C510E20FFF781FE01208F
:10245800FEF778FCB0211E20FFF77AFE0120FEF778
:1024680071FC42F63F110120FFF772FE0120FEF7D2
:1024780069FC4FF4C0610220FFF76AFE0120FEF7F5
:1024880061FC00211020FFF763FE0120FEF75AFCD3
:1024980046F270011120FFF75BFE0120FEF752FCA7
:1024A80000210520FFF754FE0120FEF74BFC002118
:1024B8000620FFF74DFE0120FEF744FC4EF61C7186
:1024C8001620FFF745FE0120FEF73CFC03211720EC
:1024D800FFF73EFE0120FEF735FC40F233210720CE
:1024E800FFF736FE0120FEF72DFC00210B20FFF739
:1024F8002FFE0120FEF726FC00210F20FFF728FE03
:102508000120FEF71FFC00214120FFF721FE0120DA
:10251800FEF718FC00214220FFF71AFE0120FEF703
:1025280011FC00214820FFF713FE0120FEF70AFCEA
:1025380040F23F114920FFF70BFE0120FEF702FC95
:1025480000214A20FFF704FE0120FEF7FBFB0021D3
:102558004B20FFF7FDFD0120FEF7F4FB4FF46F4120
:102568004420FFF7F5FD0120FEF7ECFB0021452094
:10257800FFF7EEFD0120FEF7E5FB40F23F11462094
:10258800FFF7E6FD0120FEF7DDFB40F20771302082
:10259800FFF7DEFD0120FEF7D5FB4FF40171312076
:1025A800FFF7D6FD0120FEF7CDFB4FF40171322075
:1025B800FFF7CEFD0120FEF7C5FB40F202513320A4
:1025C800FFF7C6FD0120FEF7BDFB40F2075134209E
:1025D800FFF7BEFD0120FEF7B5FB4FF40171352072
:1025E800FFF7B6FD0120FEF7ADFB4FF40171362071
:1025F800FFF7AEFD0120FEF7A5FB40F202513720A0
:10260800FFF7A6FD0120FEF79DFB40F202313A20BC
:10261800FFF79EFD0120FEF795FB40F202313B20BB
:10262800FFF796FD0120FEF78DFB00212320FFF721
:102638008FFD0120FEF786FB00212420FFF788FD8F
:102648000120FEF77FFB4FF400412520FFF780FDB6
:102658000120FEF777FB00214F20FFF779FD4E2080
:102668000021FFF775FD2220BDE81040FFF71CBDD3
:10267800000C02400004024013B5224B00240094D1
:102688005A6C42F480425A645A6C02F480420092B6
:10269800009A01941A6C42F080521A641B6C03F081
:1026A800805301930320019BFEF760FB22462146DD
:1026B8006FF00B00FEF76CFB224621466FF00A0014
:1026C800FEF766FB224621466FF00900FEF760FB25
:1026D800224621466FF00400FEF75AFB22462146A7
:1026E8006FF00300FEF754FB224621466FF001000D
:1026F800FEF74EFB224621464FF0FF30FEF748FB1F
:1027080002B010BD003802407FB502680F4B9A42F4
:1027180019D1002103F5FE3300911A6C0C4842F4DC
:1027280000421A641B6C039103F400430093009B5E
:1027380038230193022302930323049301A9062358
:102748000593FEF781FB07B05DF804FB003C0040F1
:10275800000402407047FEE7FEE7FEE7FEE7704729
:102768007047704708B5FEF7DBFABDE80840FEF78A
:1027780066BB00000F49D1F8883043F47003C1F8F4
:1027880088300D4B1A68002042F001021A609860E8
:102798001A6822F0847222F480321A60074A5A605A
:1027A8001A6822F480221A60D8604FF000638B60A8
:1027B800704700BF00ED00E00038024010300024F0
:1027C80002210148FEF720BC000C02402DE9F34726
:1027D800DFF878801A4C1B4F1B4E054600224046F6
:1027E8008021FEF717FC4FF47A7921464FF47A736B
:1027F8000122384625704FF0000AFEF7F5FE3246F2
:102808002146CDF800900123384684F800A0FEF751
:1028180094FF3578CDF8009032462146012338469A
:1028280084F800A0FEF789FF337840460122802112
:102838002D021D43FEF7EEFBE80802B0BDE8F08765
:10284800A22700202C2700201A270020000C024075
:1028580008B5A0F5EB7307EE903A0129F8EEE77A90
:1028680010D19FED137AC7EE876A16EE900AFDF72E
:102878000BFE0BA3D3E90023FDF75AFEFEF76AF817
:1028880080B208BD9FED0B7AC7EE876A16EE900AF4
:10289800FDF7FAFD04A3D3E90023EDE7AFF30080C9
:1028A8000000000000F073400000000000E06D40F0
:1028B80000E0494500A03E45DFF834D0002103E0A0
:1028C8000C4B5B58435004310B480C4B42189A424E
:1028D800F6D30B4A02E0002342F8043B094B9A4224
:1028E800F9D3FFF747FF00F011F8FFF769FA7047CF
:1028F80000000220802B000800000020EC260020A9
:10290800EC260020A8270020FEE7000070B50D4E39
:102918000D4CA41BA4100025A54209D10B4E0C4C4C
:1029280000F0D8F8A41BA4100025A54205D170BD5D
:1029380056F8253098470135EEE756F82530984780
:102948000135F2E7782B0008782B0008782B00086F
:102958007C2B0008194B10B51C68A36BD3B9182041
:1029680000F032F843F20E33A06303804AF6CD3309
:10297800438041F2342383804EF26D63C3804DF669
:10298800EC630381052343810B2383810122002308
:10299800C0E90423A16B0A480A694B69094C5043F2
:1029A80004FB0300A2FB04230132034443F10003A8
:1029B800C1E9042323F0004010BD00BF8826002091
:1029C8002DF451582D7F954C024B0146186800F0A4
:1029D80003B800BF8826002070B5CD1C25F003057C
:1029E80008350C2D38BF0C25002D064601DBA94201
:1029F80003D90C233360002070BD00F05BF8234A34
:102A08001468214691B9224C23681BB9304600F05E
:102A180041F820602946304600F03CF8431C26D196
:102A28000C233360304600F046F8E4E70B685B1B84
:102A38001AD40B2B0FD90B60CD50CC18304600F0B0
:102A48003AF804F10B00231D20F00700C31A1BD02D
:102A58005A42E25070BD8C420DBF63684B68636098
:102A6800136018BF0C46E9E70C464968CAE7C41C5E
:102A780024F00304A04205D0211A304600F00AF8D9
:102A88000130CDD02560D9E770BD00BF1C270020DC
:102A98002027002038B5064C002305460846236049
:102AA80000F00AF8431C02D1236803B12B6038BD3B
:102AB800A427002070477047044B1968024609B9DB
:102AC80003491960186802441A60704724270020D7
:102AD800A8270020F8B500BFF8BC08BC9E46704780
:0C2AE800F8B500BFF8BC08BC9E46704763
:102AF40047616D65204F76657200486967682053A9
:102B0400636F72653A2000466C6170792042697285
:102B14006400456D62656464656420636F6D7075FF
:102B24007465722076657273696F6E00436F6465B5
:102B34002062792044696E68204461632043756F84
:102B44006E6700436C69636B20746F20656E7465F7
:102B540072207468652067616D65210000000000C3
:0C2B64000000000001020304060708093D
:082B70005CDEFF7F01000000A4
:042B7800AD010008A3
:042B7C0089010008C3
:102B80000100000010000000FFC7FFC7FFC7FFC71C
:102B9000FFC7FFC7FFCFFFCFFFD710646A3A8A3A5B
:102BA0008A3A8A3A8A3AAA42AA42083279A6FFD7D2
:102BB000FFC7FFC7FFC7FFC7FFC7FFC7FFC7FFC7E5
:102BC000FFC7FFC7FFC7FFCF7DBF5DB7DFC7273A8E
:102BD0000000200820082008400800000000000035
:102BE00034859EBFFFCFFFC7FFC7FFC7FFC7FFC723
:102BF000FFC7FFC7FFC7FFC7FFCFFFE7661900008A
:102C0000000060BC00FFC0FEC0FEE0FEC0FF8041CF
:102C10000100FFFF65310000FFEFFFCFFFC7FFC7D7
:102C2000FFC7FFC7FFC7FFC7FFCFFFCF7DBF092A81
:102C3000A28B20ACE0A380E520FE20FE20FEC0EDAC
:102C400060414E8C96B5FFFF38C6F39CE729599E2C
:102C5000FFCFFFC7FFC7FFC7FFC7FFCFFFC7FFCF2C
:102C6000FBAE000080BCA0FE80FE20FE20FE20FE09
:102C700040FE80E50000D7BDFFFFFFFFFFFF7DEFB7
:102C800000005585FFCFFFCFFFC7FFC7FFD73CB779
:102C900000000000000000000000000020FF40FED7
:102CA00020FE20FE40FE80E50000B6B5FFFFFFFFDE
:102CB00086310000FFFFE7410000FFDFFFC7FFC7CD
:102CC000D37C4D53B29CB294B294B294B294708CB3
:102CD000005A20D540FE20FE40FE80E50000B6B53B
:102CE000FFFFFFFF28422000FFFF284A2000FFDFF0
:102CF000FFC7FFC728326110FFFFFFFFFFFFFFFF85
:102D0000FFFF5DEF000060BCC0FE20FE40FE60E5FE
:102D10000000F8BDFFFFFFFFA6310000FFFF284ABB
:102D20002000FFDFFFC7FFC7693AA310FFFFFFFFC7
:102D3000FFFFFFFFFFFFFFFFFFFFCA310000C0FEE4
:102D400020FE40FE60FFE0280000FFFFFFFFFFFFC6
:102D5000FFFF694A4100FFEFFFCFFFC76A3A8010CB
:102D6000B0FFBBFFFFFFFFFFFFFFDEFF8FFFC43998
:102D70004008C0FE20FE20FE60FEE0A3017B117C27
:102D8000EF7BEF7B518C042100001064BAAEFFCFC3
:102D9000C729000820FFD9FFFFFFFFFFFFFFFFFF4C
:102DA00020FF40310000C0FE20FE20FE20FE00FF7C
:102DB00060FE0000000000000000000000000000B5
:102DC000D78DFFE7FFD75DB7000060BC80FE40FEF7
:102DD00060FE80ED000080BCC0FE20FE20FE20FED4
:102DE000E0FE40310000C2FB81FB81FB81FB81FBE7
:102DF00081FBA2FB20384100FFCF7DBFCC42638323
:102E0000809380938093608BC049E0CC00FEC0F536
:102E1000E0F5A0ED808BE0692061C181C181C181B5
:102E2000C181C181C181A089C9623064FFC7FFCF60
:102E3000FFE74619000000000000400860FE80E542
:102E400060E560E580E5C0C4000041B241F30000E8
:102E5000000000000000000000000000D78DFFDF30
:102E6000FFC7FFC7FFCFFFC7FFC7FFD7C7290008AE
:102E700040FEA0EDA0ED60E560E580E5C0F56039BD
:102E8000000081FB41EB41EB41EB41F301DB000032
:102E9000758DFFCFFFC7FFC7FFC7FFCFFFCFFFD79E
:102EA0001064884AA09B8093C09BA0ED60E560E51C
:102EB000C0F5E072A049019A019A019A019A019A1B
:102EC000E1890000758DFFCFFFC7FFC7FFC7FFC7B0
:102ED000FFC7FFC7FFD75DB700000000000080FEFE
:102EE00000FE00FE00FE60FEA0ED000000000000FD
:102EF00000000000000000003485FFCFFFC7FFC7BF
:102F0000FFC7FFC7FFC7FFC7FFC7FFC73CB77DBFEE
:102F100079A600000008000800080000C118FFC7DB
:102F20005DB75DB75DB75DB75DB73CB7DFC7FFCFD6
:102F3000FFC7FFC7FFC7FFC7FFC7FFC7FFC7FFC761
:102F4000FFCFFFCF9EBF0832AA42AA42AA428A3AC6
:102F50000C4BFFDFFFCFFFCFFFCFFFCFFFCFFFCF68
:102F6000FFCFFFC7DFBFDFBFDFBFDFBFDFBFDFBF19
:102F7000DFBFDFBFDFBFDFBFDFBFDFBFDFBFDFBF61
:102F8000DFBFFFB7FFB7FFBFB9CE91E58AEC06FC04
:102F900061FB20FB00FB20FB82FB27FCECECF3DD5C
:102FA0003BCFFFB7FFB7FFB7DFBFDFBFDFBFDFBF7D
:102FB000DFBFDFBFDFBFDFBFDFBFDFBFDFBFDFBF21
:102FC000DFBFDFBFDFBFDFBFDFBFDFBFDFBFDFBF11
:102FD000DFBFDFBFDFBFDFBFDFBFDFBFDFBFDFBF01
:102FE000FFB7FFB756DE27FC60FA80FAA0FA80FA36
:102FF00000FB85E3C7DBC8DBC7DB85E300FB80FAAA
:10300000A0FA80FAA0FA8AECF9D6FFB7FFB7DFBFC3
:10301000DFBFDFBFDFBFDFBFDFBFDFBFDFBFDFBFC0
:10302000DFBFDFBFDFBFDFBFDFBFDFBFDFBFDFBFB0
:10303000DFBFDFBFDFBFDFBFDFBFDFBFDFBFFFB788
:10304000FFB791DDC0FAA0FAA0FA63EB70BC398D2E
:10305000DF6DDF6DDF6DBF75BF75BF75DF75FF6D30
:10306000FF6D399570BC63EB80FA80FA21FB35E681
:10307000FFB7FFB7DFBFDFBFDFBFDFBFDFBFDFBF30
:10308000DFBFDFBFDFBFDFBFDFBFDFBFDFBFDFBF50
:10309000DFBFDFBFDFBFDFBFDFBFDFBFDFBFFFB728
:1030A00077DEC0FAA0FAC0FA4DC49E7DDF6DDF7DE9
:1030B0005F96BFA6FFAE3FB73FB75FB73FB7FFAE64
:1030C000BFA65F96FF859F75FF6DBE7D4DC4C0FA9C
:1030D00080FA20FBF9D6FFB7DFBFDFBFDFBFDFBF5E
:1030E000DFBFDFBFDFBFDFBFDFBFDFBFDFBFDFBFF0
:1030F000DFBFDFBFDFBFDFBFDFBFDFBFFFB7FFB7B0
:1031000027FC80FAC0FA4EBCFF6DBF755F961FAFFB
:103110007FBF5FB75FB75FB73FB73FB73FB73FB757
:103120005FB75FB75FB77FBF5FB79F9EDF85BF7534
:10313000FF754EC4A0FA60FA8AF4FFBFFFB7DFBF85
:10314000DFBFDFBFDFBFDFBFDFBFDFBFDFBFDFBF8F
:10315000DFBFDFBFDFBFDFBFDFBFDFBFFFB77DC7C1
:10316000E0FAA0FA64EBBF7DBF755F965FB75FB70B
:103170005FB73FB73FB73FB73FB73FB73FB73FB77F
:103180003FB73FB73FB73FB73FB73FB75FB77FBF27
:10319000FFAEDF85DF75BE7D64EBA0FA00FB9EC746
:1031A000FFB7DFBFDFBFDFBFDFBFDFBFDFBFDFBF17
:1031B000DFBFDFBFDFBFDFBFDFBFDFBFFFB7FAC6E5
:1031C00080FAA0FA6FBCFF6DDF853FB75FB73FB7EE
:1031D0003FB73FB73FB73FB73FB73FB73FB73FB73F
:1031E0003FB73FB73FB73FB73FB73FB73FB73FB72F
:1031F0003FB75FB77FBF9FA69F7D1F6E6FBCA0FAD2
:1032000080FAFAC6FFB7DFBFDFBFDFBFDFBFDFBFB8
:10321000DFBFDFBFDFBFDFBFDFBFDFBFFFB7FACE7C
:1032200080FAC0FA189DDF6D5F967FBF5FB73FB72A
:103230003FB73FB73FB75FB75FB75FB75FB75FB73E
:103240005FB75FB75FB75FB75FB73FB73FB73FB72E
:103250003FB73FB73FB73FB75FB73FB7BE85FF75D3
:10326000179DC0FA80FAD9CEFFB7DFBFDFBFDFBF3F
:10327000DFBFDFBFDFBFDFBFDFBFDFBFFFB79ECF77
:1032800080FAC0FA5995BF759F9E7FBF3FB73FB781
:103290003FB75FB75FB75FB7FFAE9FA65E9E3E9E2C
:1032A0001E9E1E9E3E9E5E9E9FA6DFAE5FB75FB7D0
:1032B0003FB73FB73FB73FB73FB73FB75FB75FB71E
:1032C000BE85DF755995C0FA80FA3CCFFFB7DFBFE6
:1032D000DFBFDFBFDFBFDFBFDFBFDFBFDFBFFFBFDE
:1032E000E0FAA0FA3895BF759F9E7FBF3FB73FB702
:1032F0005FB77FB7FFAE5F9EFE95FE951E961E9E42
:103300001E9E3E9E1E9E3E9E1E9E1E9E1E9EFE95C6
:103310007FA65FB75FB73FB73FB73FB73FB73FB78E
:103320005FB75FB7BE85DF7D189DC0FAC0FAFFBFEB
:10333000DFBFDFBFDFBFDFBFDFBFDFBFDFBFFFB785
:1033400027F4A0FA91B4DF755E967FBF3FB73FB711
:103350005FB71FAF1E96FE951E961E9E3E9E3F9E19
:103360005FA67FA65FA63E9E3EA63E9E3E9E3E9EDA
:103370003E9E1E9EFE95DFAE5FB73FB73FB73FB79D
:103380003FB73FB75FB71FAF9E85FF7590B4A0FAF8
:10339000C5FBFFB7DFBFDFBFDFBFDFBFDFBFFFB7EB
:1033A00076DE80FAA6E3FF6DDE8D7FBF3FB73FB7C5
:1033B0005FB75F9EDE8D1E961E9E3E9E3E9E5FA662
:1033C000FE953864175C7C859FAE5EA65EA65EA601
:1033D0005EA63EA63EA63E9E1E9E7EA65FB75FB739
:1033E0003FB73FB73FB73FB77FBF3E96BE851F6E23
:1033F00085E380FAF3DDFFB7DFBFDFBFDFBFDFBFED
:10340000FFBFE0FAC0FADF7D9F7D3FB75FB75FB7D0
:103410003FB7FE95FE951E961E9E3E9E3E9E5FA663
:10342000DD95B784FFFFBFF779A5D75BBFB67FAE49
:103430005EA65EA65EA65EA65EA63EA61E9E1E9E1C
:103440003FB75FB73FB73FB73FB75FB7BFA6BE85D0
:10345000DF85DF7DE0FAA0FAFFBFDFBFDFBFDFBFA0
:10346000FFB7B1E580FA90B4DF755F965FB75FB7DD
:103470003FB7DE8DFE951E961E9E3E9E3E9E3EA64C
:103480007FAE796C7EEFFFFFFFFFFFFF3DE7754BDF
:103490005EAE9FAE7EAE5EAE5EA65EA65EA63EA6AB
:1034A0003E9EFE9D7FA63FB77FB77FB73FB7FE8D9D
:1034B000DE85DE85FF7D70BCA0FA0EE5FFB7DFBFBD
:1034C000DFBFFFB7C0FAE0FAFF759E7D5FB75FB759
:1034D0005FB7DE8DFE951E961E9E3E9E3E9E5EA6AC
:1034E0005EA67FAE996C3EE7FFFFFFFFFFFFFFFF89
:1034F000FFFFD6639C8DDFB67EAE7EAE5EAE5EA66F
:103500005EA65EA63E9E1E9EFE951E961E96DE8DB5
:10351000FE8DDE8DDE85BF85FF75E0FAA0FAFFBF68
:10352000DFBFFFB735D680FA70BCDF7D3F965FB74F
:103530007FB71E96FE951E961E9E3E9E3E9E5EA6E2
:103540005EA65EA69FAEB9743EE7FFFFFFFFFFFFDA
:10355000FFFFFFFFFFFFF88C586CFFBE7EAE7EAE14
:103560007EAE5EA65EA65EA63E9E3E9E1E9E1E96FB
:10357000FE95FE8DFE8DDE8DDE85DF7D70BCA0FAB2
:10358000D3E5FFB7FFB706FCA0FADF7D9F7DFFAE56
:103590007FB77F9EDE8D1E961E963E9E3E9E3EA669
:1035A0005EA65EA67EAE9FB6B9743EE7FFFFFFFF44
:1035B000FFFFFFFFFFFFFFFFFFFF9CCE764BBFB675
:1035C0009FB67EAE7EAE5EA65EA63EA63E9E3E9EAA
:1035D0001E961E96FE95FE8DDE8DDE85DF859F751F
:1035E000A0FAA3FBFFB7FFBF60FAA6E3FF759E85B5
:1035F0005FB71FB7BE8D1E961E961E9E3E9E3EA6B0
:103600005EA65EA67EAE7EAEBFB6B9743EE7FFFF95
:10361000FFFFFFFFFFFFFFFFFFFFFFFFFFFFDFFFDA
:1036200075531DA6BFB67EAE7EAE5EA65EA63E9E5E
:103630003E9E1E9E1E961E96FE8DFE8DDE8DDE85A6
:103640007F65A6E360FAFFBFB8D680FA92B4DF7D4B
:10365000FE8D9FBF3E96FE8D1E961E9E3E9E3E9EFA
:103660005EA65EA65EAE7EAE7EAEBFB6B9743EE727
:10367000FFFFFFFFFFFFFFFFFFFFFFFFFFFFFFFF5A
:10368000FFFFFFFF5774FA7CFFBE7EAE5EAE5EA604
:103690005EA63E9E3E9E1E9E1E96FE95FE8DDE8D75
:1036A000DE8D5F6571B4A0FA76D670E5A0FA7B8DE9
:1036B000BF7D3F963FB7BE8DFE951E961E9E3E9ED9
:1036C0003E9E5EA65EA67EAE7EAE9EB6DFBEB974A0
:1036D0003EE7FFFFFFFFFFFFFFFFFFFFFFFFFFFFD3
:1036E000FFFFFFFFFFFFFFFFDAB5D753DFBE7FAE5F
:1036F0005EA65EA63E9E3E9E1E9E1E96FE95FE8D7C
:10370000DE8DDE8D5F6D1A85A0FA4FE589ECA0FA9B
:10371000FF6DBE859F9E7F9EDE8D1E961E961E9E11
:103720003E9E5EA65EA67EAE7EAE7EB69EB6DFBE38
:10373000D97C3EE7FFFFFFFFFFFFFFFFFFFFFFFF1B
:10374000FFFFFFFFFFFFFFFFFFFFFFFF5EEF554B98
:103750005EAE9FAE5EA63EA63E9E1E9E1E96FE9549
:10376000FE8DDE8DDE8D3E6D7F5DC0FA68F4E5FB7B
:1037700021F3FF75BE85BFA6DE8DFE8D1E961E96BB
:103780003E9E3E9E3EA65EA67EAE7EAE9EB69EB699
:10379000DFBED97C3EE7FFFFFFFFFFFFFFFFFFFF1C
:1037A000FFFFFFFFFFFFFFFFFFFFFFFFFFFFFFFF29
:1037B000FFFFD65B7C8D9FAE3EA63E9E3E9E1E9634
:1037C0001E96FE95FE8DFE8D1E6D7F5D20FBC4FB5B
:1037D00061FB84E3FF75BE855F9EDE8DFE951E96C0
:1037E0001E9E1E9E3E9E5EA65EA67EAE7EAE9EB6D1
:1037F0009EB6DFBED97C3EE7FFFFFFFFFFFFFFFF66
:10380000FFFFFFFFFFFFFFFFFFFFFFFFFFFFFFFFC8
:10381000FFFFFFFFFFFF599D58649FAE3E9E1E9E17
:103820001E9E1E96FE95FE8DFE8DFE645F5D84EBF2
:1038300040FB20FBA6E3FF75BE851E8EDE8DFE9548
:10384000FE951E9E3E9E3EA65EA65EA67EAE7EAE09
:103850009EB69EB6DFBED97C3EE7FFFFFFFFFFFFAF
:10386000FFFFFFFFFFFFFFFFFFFFFFFFFFFFFFFF68
:10387000FFFFFFFFFFFFFFFFFFFFDAAD796C7FA6C1
:103880003E9E1E9EFE95FE95FE8DDE8DDE645F5D86
:10389000C5E300FB00FBA6E3FF75BE85DE8DDE8D74
:1038A000FE95FE951E9E3E9E3EA65EA65EA67EAE42
:1038B0007EAE9EB69EB6DFBED97C3EE7FFFFFFFF21
:1038C000FFFFFFFFFFFFFFFFFFFFFFFFFFFFFFFF08
:1038D000FFFFFFFFFFFFFFFFFFFFFFFFFFFF554B56
:1038E0009FAE3E9E1E9EFE95FE95FE8D9E7DFE64C5
:1038F0005F5DA5E300FB40FB84E3FF75DE85DE8DA5
:10390000FE8DFE951E961E9E3E9E3E9E5EA65EA669
:103910007EAE7EAE9EB69EB6DFBED97C3EE7FFFF92
:10392000FFFFFFFFFFFFFFFFFFFFFFFFFFFFFFFFA7
:10393000FFFFFFFFFFFFFFFFFFFFFFFFFFFFDCD6E3
:10394000996C5FA61E9E1E9E1E96FE8DFE953E7570
:10395000FE645F5D84EB41FBC4FB21F3FF75DE85F4
:10396000DE8DFE8DFE951E961E963E9E3E9E3EA6CA
:103970005EA67EAE7EAE9EB69EB6DFBED97C3EE72C
:10398000FFFFFFFFFFFFFFFFFFFFFFFFFFFFFFFF47
:10399000FFFFFFFFFFFFFFFFFFFFFFFFFFFF1BBE5C
:1039A000D7539FAE3E9E3E9E1E961E96FE95FE8D62
:1039B000FE64FE647F6520FBE5FB48F4A0FAFF751A
:1039C000BE85DE8DDE8DFE8D1E961E961E9E3E9E53
:1039D0005EA65EA65EAE7EAE7EB69EB6DFBED97C2D
:1039E0003EE7FFFFFFFFFFFFFFFFFFFFFFFFFFFFC0
:1039F000FFFFFFFFFFFFFFFFFFFFFFFFFFFF777CE2
:103A0000B974BFAE3EA63E9E1E9E1E96FE95FE95C6
:103A10009E7DFE64FE649F65A0FA69F44FE5A0FAFE
:103A20003B85DF85DE85DE8DFE8DFE951E961E9E16
:103A30003E9E3E9E5EA65EA67EAE7EAE9EB6DFBE7D
:103A4000B9743EE7FFFFFFFFFFFFFFFFFFFFFFFF30
:103A5000FFFFFFFFFFFFFFFFFFFFFFFFFFFF7553AC
:103A6000FD9D9FAE5EA63E9E3E9E1E9E1E96FE95B0
:103A70001E96FE6CFE641F651A85A0FA70E576DE60
:103A8000A0FA71AC9F75DE85DE8DFE8DFE951E96CB
:103A90001E9E3E9E3E9E5EA65EA65EAE7EAE7EAE46
:103AA000BFB6B9743EE7FFFFFFFFFFFFFFFFFFFF59
:103AB000FFFFFFFFFFFFFFFFFFFFFFFFBCD6754BC0
:103AC0009FB67FAE5EA65EA63E9E3E9E1E9E1E9644
:103AD0001E969E85FE641E6D1F5D91B4A0FA97D65A
:103AE000DFBF60FAA6E33F5DDE8DDE85FE8DFE8DD5
:103AF0001E961E961E9E3E9E3E9E5EA65EA67EAEB6
:103B00007EAEBFB6B9743EE7FFFFFFFFFFFFFFFFCA
:103B1000FFFFFFFFFFFFFFFFFFFFFFFF1895586448
:103B2000FFBE7EAE5EA65EA63EA63E9E1E9E1E9674
:103B3000FE951E96FE64FE64FE645F5DA5EB60FA72
:103B4000FFBFFFB7A3FBC0FA5F6D5E6DFE8DDE8D1C
:103B5000FE8DFE951E961E963E9E3E9E3EA65EA63F
:103B60005EA67EAE9FB6B9743EE7FFFFFFFFFFFF84
:103B7000FFFFFFFFFFFFFFFFFFFFFFFFB65B9C8D17
:103B8000DFB67EAE5EA65EA63EA63E9E3E9E1E961C
:103B90001E961E963E75FE641E6DFE647F75A0FA2D
:103BA000E5FBFFB7FFB7F3E5A0FA70BCFF5C9E7DB5
:103BB000DE8DFE8DFE8DFE951E961E9E3E9E3E9EC9
:103BC0005EA65EA65EA69FAE99743EE7FFFFFFFF6E
:103BD000FFFFFFFFFFFFFFFFFFFF3EE7554B7EAEFE
:103BE0009FB67EAE5EA65EA65EA63E9E3E9E1E9ED4
:103BF0001E961E969E85FE641E6DFE641F5D70BC43
:103C0000A0FA35DEFFB7DFBFFFBFA0FA00FB7F5D84
:103C1000FE64BE85FE8DFE8DFE951E961E961E9E32
:103C20003E9E3E9E5EA65EA69FAE996C3EE7FFFF5F
:103C3000FFFFFFFFFFFFFFFFFFFFBAADD75BDFB660
:103C40007FAE5EAE5EA65EA65EA63E9E3E9E1E9EBB
:103C50001E961E96DE8DDE64FE641E6DFE649F65FC
:103C600000FBC0FAFFBFDFBFDFBFFFB72EE5A0FA42
:103C700070B41F5DFE64BE85FE8DFE8DFE951E96A2
:103C80001E961E9E3E9E3E9E3EA67FAE996C5EE7B1
:103C9000FFFFFFFFFFFFFFFFFFFF3674FA7CDFB679
:103CA0005EAE5EA65EA65EA63EA63E9E3E9E1E9EA4
:103CB0001E961E96DE8DFE64FE641E6DFE643F5DE4
:103CC0008FBCA0FA91E5FFB7DFBFDFBFDFBFFFBF4B
:103CD000C0FAE0FA7F6DFE64FE64BE85FE95FE8D3F
:103CE000FE951E961E961E9E3E9E3E9E7FA6996C3B
:103CF0003DE7FFFFFFFFFFFFBFF77553FD9D9FAE41
:103D00005EA65EA65EA65EA63EA63E9E3E9E1E9E4B
:103D10001E961E9EDE8DDE64FE641E6D1E6DFE64AC
:103D20007F75E0FAE0FAFFBFDFBFDFBFDFBFDFBFB5
:103D3000FFB714D680FAA6EB5F55FE64FE645E758D
:103D40001E96FE95FE951E961E961E9E3E9E3F9EBC
:103D50009C8DD663FFFFFFFF5BC6964B9FAE7FA691
:103D60005EA63EA63EA63EA63E9E3E9E3E9E1E9E53
:103D70001E963E9E7E7DDE64FE641E6D1E6DFE649C
:103D80007F5DA5EB80FA77DEFFB7DFBFDFBFDFBF68
:103D9000DFBFDFBFFFB7E6F3A0FA90B43F5DFE647C
:103DA000FE641E6DDE8D1E96FE951E961E961E9E50
:103DB0001E9E5FA67C85D75B3764DA749FAE5EA6D5
:103DC0003E9E3E9E3E9E3E9E3E9E3E9E1E9E1E9E53
:103DD0003E9E1E961E6DFE641E6D1E6D1E6DFE6463
:103DE0003F5D90BCA0FA28F4FFB7DFBFDFBFDFBFA5
:103DF000DFBFDFBFDFBFDFBFFFBFE0FAC0FA17954D
:103E00001F5DFE64FE64DE643E75FE8D1E961E968A
:103E10001E961E961E963F9E5F9E5FA65F9E3E9ECE
:103E20003E9E3E9E3E9E1E9E1E9E1E9E1E9E3E9E32
:103E30001E965E75DE64FE641E6D1E6D1E6DFE6454
:103E40001F5DF79CC0FA00FBFFBFDFBFDFBFDFBF16
:103E5000DFBFDFBFDFBFDFBFDFBFFFB77ECF80FACF
:103E6000C0FA39951F5DFE641E6DFE64DE643E6D12
:103E7000BE851E961E961E961E961E961E9E1E960B
:103E80001E9E1E9E1E9E1E9E3E9E3E9E3E9EDE8D43
:103E90005E75DE64FE641E6D1E6D1E6D1E6DFE641D
:103EA0001F5D1995C0FAA0FABFC7FFB7DFBFDFBF1C
:103EB000DFBFDFBFDFBFDFBFDFBFDFBFDFBFFFB7FA
:103EC000FACE80FAC0FAF79C3F55FE641E6D1E6D57
:103ED000FE64FE64DE643E6D7E7DBE85DE8D1E96D4
:103EE0001E9E3E9E1E96FE95DE8D9E7D5E75FE6438
:103EF000FE64FE641E6D1E6D1E6D1E6D1E6DFE64E5
:103F00003F55F69CC0FA80FA3BCFFFB7DFBFDFBF5B
:103F1000DFBFDFBFDFBFDFBFDFBFDFBFDFBFDFBFB1
:103F2000DFBFFFB71BC7A0FAA0FA6FC47F5DFE64B6
:103F3000FE641E6D1E6D1E6DFE64FE64FE64FE64F6
:103F4000DE64DE64DE64DE64DE64FE64FE64FE6401
:103F5000FE641E6D1E6D1E6D1E6D1E6DFE6CFE647C
:103F60007F554EC4A0FAA0FA3BC7FFB7DFBFDFBF43
:103F7000DFBFDFBFDFBFDFBFDFBFDFBFDFBFDFBF51
:103F8000DFBFDFBFDFBFFFB7BFC720FBA0FA84F3EF
:103F90007E753F5DFE64FE641E6D1E6D1E6D1E6DA2
:103FA0001E6D1E6D1E6D1E6D1E6D1E6D1E6D1E6DB9
:103FB0001E6D1E6D1E6D1E6D1E6D1E6DFE641F5DE1
:103FC0005E7583F3A0FA00FBBFC7FFB7DFBFDFBF9B
:103FD000DFBFDFBFDFBFDFBFDFBFDFBFDFBFDFBFF1
:103FE000DFBFDFBFDFBFDFBFDFBFDFB7FFBFABF4C8
:103FF00060FAC0FA4EC49F651F5DFE64FE641E6DCC
:104000001E6D1E6D1E6D1E6D1E6D1E6D1E6D1E6D58
:104010001E6D1E6D1E6D1E6DFE641E651F5D7F652F
:104020004DC4C0FA60FA8AF4FFBFDFB7DFBFDFBF5D
:10403000DFBFDFBFDFBFDFBFDFBFDFBFDFBFDFBF90
:10404000DFBFDFBFDFBFDFBFDFBFDFBFDFBFDFBF80
:10405000FFB7FAD621FB80FAC0FA4DCC5D757F5DC3
:104060001F5D1F65FE64FE64FE64FE64FE64FE6404
:10407000FE64FE64FE641F651F5D5F555D754DC483
:10408000E0FAA0FA00FBD9D6FFB7DFBFDFBFDFBF82
:10409000DFBFDFBFDFBFDFBFDFBFDFBFDFBFDFBF30
:1040A000DFBFDFBFDFBFDFBFDFBFDFBFDFBFDFBF20
:1040B000DFBFDFBFFFB7FFB735E621FB80FAA0FA0D
:1040C00063F36FBC198D9F659F5D5F5D3F5D3F5DD5
:1040D0003F5D5F5D7F5D9F65F98C6FBC63F3A0FA08
:1040E00080FA00FBF3DDFFB7FFB7DFBFDFBFDFBF45
:1040F000DFBFDFBFDFBFDFBFDFBFDFBFDFBFDFBFD0
:10410000DFBFDFBFDFBFDFBFDFBFDFBFDFBFDFBFBF
:10411000DFBFDFBFDFBFDFBFDFBFFFB7FFB7D9D66E
:104120008AECA0FA80FAA0FAA0FA00FB85EBC6E3BD
:10413000E7E3C6E385EB00FBA0FAA0FA80FA80FA79
:1041400069FC97D6FFB7FFB7DFBFDFBFDFBFDFBFB9
:10415000DFBFDFBFDFBFDFBFDFBFDFBFDFBFDFBF6F
:10416000DFBFDFBFDFBFDFBFDFBFDFBFDFBFDFBF5F
:10417000DFBFDFBFDFBFDFBFDFBFDFBFDFBFDFBF4F
:10418000FFB7FFB7FFB71BCFD2DDCBEC27FC82FB1D
:1041900020FB00FB20FB82FB06FCAAECB1E5DACE9B
:1041A000FFBFFFB7FFB7DFBFDFBFDFBFDFBFDFBFCF
:1041B000DFBFDFBFDFBFDFBFDFBFDFBFDFBFDFBF0F
:1041C000DFBFDFBFAA9EAA9EAA9E8A9ECAA68EBFF6
:1041D0006DBF6DBF8EBFCBA6AA9EAA9EAA9E8A9EC9
:1041E000EBAE8EBF6DBF8DBF8EBFABA6AA9EAA9E43
:1041F000AA9E8A9E0CAF8DBF6DBF6DBF6DBFAAA674
:10420000AA9EAA9EAA9E8A9E2CAF8DBF6DBF8DBF0F
:104210008EBF8A9EAA9EAA9EAA9E8A9E2CB76DBF1A
:104220006DBF8DBF4DB78A9EAA9EAA9EAA9E8A9EEA
:104230006DB76DBF6DB78EBF4CB78A9EAA9EAA9E02
:10424000AA9EAA9E6DB76DBF6DBF8EBF2CAF8A9E12
:10425000AA9EAA9E8A9EAA9E8DBF6DBF6DBF8EBF6D
:10426000EBAEAA9EAA9EAA9E8A9ECBA68EBF6DBFCB
:104270006DBF8EBFEBA6AA9EAA9EAA9E8A9ECBA6C3
:104280008EBF6DBF6DBF8DBFCBA6AA9EAA9EAA9EF4
:104290008A9EEBAE8DBF6DBF8DBF8EBFAA9EAA9EBC
:1042A000AA9EAA9E8A9E0CAF8DBF6DBF8DBF6DBFAB
:1042B000AA9EAA9EAA9EAA9E8A9E2CB76DBF6DBF7B
:1042C0008EBF6DB78A9EAA9EAA9EAA9E8A9E4DB751
:1042D0006DBF6DBF8EBF4DB78A9EAA9EAA9EAA9E35
:1042E0008A9E6DB76DBF6DBF8EBF2CAF8A9EAA9E92
:1042F000AA9EAA9EAA9E8EBF6DBF6DBF8EBF0CAF39
:10430000AA9EAA9EAA9E8A9ECBA66DBF6DBF6DBFB8
:104310008EBFEBAE8A9EAA9EAA9E8A9ECBA68DBF1A
:104320006DBF6DBF8EBFCBA6AA9EAA9EAA9E8A9E77
:10433000EBA68EBF6DBF6DBF8EBFAA9EAA9EAA9E22
:10434000AA9E8A9E0CAF8DBF6DBF8DBF6DB7AAA60A
:10435000AA9EAA9EAA9E8A9E2CAF8DBF6DBF8DBFBE
:104360008DBF8A9EAA9EAA9EAA9E8A9E2CB76DBFCA
:104370006DBF8EBF4DB78A9EAA9EAA9EAA9E8A9E98
:104380006DB76DBF6DBF8EBF2CB78A9EAA9EAA9EC9
:104390008A9EAA9E6DB76DBF6DBF8EBF2CAF8A9EE1
:1043A000AA9EAA9E8A9EAAA68DBF6DBF6DBF8EBF14
:1043B0000BAFAA9EAA9EAA9E8A9ECAA68EBF6DBF5A
:1043C0006DBF8EBFCBA6AA9EAA9EAA9E8A9EEBAE6A
:1043D0008DBF6DBF6DBF8EBFCBA6AA9EAA9EAA9EA3
:1043E0008A9E0CAF8DBF6DBF8DBF8DBFAAA6AA9E42
:1043F000AA9EAA9E8A9E2CAF8DBF6DBF8DBF6DBF3A
:104400008A9EAA9EAA9EAA9E8A9E4DB76DBF6DBF28
:104410008DBF4DB7AA9EAA9EAA9EAA9E8A9E6DB7E0
:104420006DBF6DBF8EBF4DB78A9EAA9EAA9E8A9E03
:10443000AA9E6DB76DBF6DBF8EBF2CAF8A9EAA9E20
:10444000AA9EAA9EE56DE56DC56D26762A9F2A9FD8
:104450004A9F4B9F677EC56DE56DE56DC56D477ED7
:104460002A972A9F4B9F2A97477EC56DE56DE56D7C
:10447000C56D67862A9F2A9F4B9F2A972676E56DF2
:10448000E56DC56DE56D88864A9F4A9F4B9F0A97EB
:104490000576C56DE56DC56DE56DA88E2A9F2A9FD1
:1044A0004B9FE996E575E56DE56DC56DE56DC98ECA
:1044B0004A9F2A9F4B9FE98EC56DE56DE56DC56DE1
:1044C0000676E9962A9F4A9F4B9FA88EE56DE56D7B
:1044D000E56DC56D06762A972A9F2A9F4B9F888691
:1044E000C56DE56DE56DC56D267E0A974A9F4A9FAD
:1044F0002A9F6786C56DE56DE56DC56D477E2A9F70
:104500002A9F4B9F2A9F477EC56DE56DC56DC56D82
:10451000477E2A9F2A9F4B9F2A972676C56DE56D79
:10452000C56DC56D88862A9F2A9F4B9F0A97067680
:10453000C56DE56DC56DC56DA8864A9F2A9F4B9FC9
:104540000A97E575E56DE56DC56DE575C98E2A9F20
:104550004A9F4B9FE98EE56DE56DE56DC56DE5758F
:10456000E9962A9F4A9F4B9FC88EE56DE56DE56DE4
:10457000C56D06760A974A9F2A9F4B9FA886C56DF0
:10458000E56DE56DC56D26760A972A9F4B9F2A9F9C
:104590008786C56DE56DE56DC56D267E2A9F2A9FD0
:1045A0004A9F2A9F477EC56DE56DE56DC56D677EA7
:1045B0002A9F2A9F4B9F2A9F267EC56DE56DE56D3C
:1045C000C56D87862A9F4A9F4B9F0A972676E56D81
:1045D000E56DC56DE56D88864A9F4A9F4B9F0A979A
:1045E000E575C56DE56DC56DE56DC98E2A9F4A9F60
:1045F0004B9FE98EE575C56DE56DC56DE575E98E79
:104600002A9F2A9F4B9FC98EC56DE56DE56DC56DCF
:104610000676E9962A9F2A9F4B9FA88EC56DE56D69
:10462000E56DC56D06762A972A9F4A9F4B9F678640
:10463000C56DE56DE56DC56D267E2A972A9F4B9F5A
:104640004A9F677EC56DE56DE56DC56D477E2A9F06
:104650002A9F4B9F2A97477EC56DE56DE56DC56D19
:1046600067862A9F2A9F4B9F2A970676E56DE56D00
:10467000C56DC56DA8862A9F4A9F4B9F0A970676EF
:10468000C56DE56DC56DE56DA88E2A9F4A9F4B9F50
:10469000E996E575E56DE56DC56DE575C98E2A9FF1
:1046A0004A9F4B9FE98EC56DE56DE56DC56D05763D
:1046B000E9962A9F4A9F4B9FA88EE56DE56DE56DB3
:1046C000C56D0676E675E57567864B9F4B9F4B9FDC
:1046D0002B9F477EC575E675E575C575888E4B9F22
:1046E0004B9F4B9F0A9F277EC575E675E675C5757E
:1046F000A88E6BA74B9F4BA70A97067EE575E675BC
:10470000E575E675C98E4BA74B9F4BA7EA96E675F4
:10471000E575E675E575E575EA964BA74B9F4BA7E2
:10472000C996E675E575E675E575067EEA964BA7CA
:104730004B9F4BA7A98EC56DE675E675C575267EA0
:104740000A9F4BA74B9F4BA7888EC575E675E675EC
:10475000C575277E2B9F4B9F4B9F4BA76786C575C3
:10476000E675E675C57568862B9F4B9F4B9F2B9F03
:104770004786C575E675E675C57568864BA74B9F78
:104780004B9F2B9F277EC575E675E675E575888E70
:104790004BA74B9F4B9F0A9F067EC575E675E57537
:1047A000C575C98E4BA74B9F4BA7EA960676E57554
:1047B000E675E575E675C9964BA74B9F4BA7C9965D
:1047C000E575E575E675E57506760A974BA72B9FA7
:1047D0004BA7A98EE575E675E675E575067E0A9F19
:1047E0004B9F4B9F4BA7888EC575E675E675C575C3
:1047F000277E2A9F4BA74B9F4BA78886C56DE675E2
:10480000E675C57547862B9F4B9F4B9F4B9F4786F1
:10481000C575E675E675C57568864BA74B9F4B9FBA
:104820002B9F277EC575E675E675C575888E4B9FEF
:104830004B9F4B9F0A9F277EE575E675E675C5750C
:10484000A98E6BA74B9F4BA70A970676E575E67571
:10485000E575E675C9964BA74B9F4BA7E996E6759C
:10486000E575E675E575E675EA964BA74B9F4BA790
:10487000A98EE675E575E675E575067E0A974BA780
:104880004B9F4BA7A98EC56DE675E675C575277E4E
:104890002A9F4BA74B9F4B9F8886C575E675E6758B
:1048A000C575477E4B9F4B9F4B9F6BA74786C57532
:1048B000E675E675C57567862B9F4B9F4B9F2B9FB3
:1048C0004786C575E675E575C57588864BA74B9F08
:1048D0004B9F2A9F267EC575E675E675E575A98E00
:1048E0006BA72B9F4B9F0A9F067EE575E675E675C5
:1048F000E575C98E4BA74B9F4BA7E9960676E575E4
:10490000E675E575E675EA964BA74B9F4BA7C996EA
:10491000E675E575E675E575067EEA964BA74B9F4D
:104920004BA7A98EC575E675E675C575267E0A9FE7
:104930004BA74B9F4BA78886C575E675E675C57571
:10494000277E2B9F0676C98E6BA76BA76BA72A9F26
:10495000267EE575067606760676E9968BA76BA722
:104960006BA72A97067605760676067626760A9748
:104970008BA76BA76B9F0A97067605760676067659
:1049800026762A9F6BA76BA76BA7C98E067606763D
:1049900006760676467E4B9F8BA76BA76B9FA88EED
:1049A0000576067606760676677E4B9F6BA76BA725
:1049B0006B9FA886E57506760676067667866BA7F2
:1049C0006BA76BA74B9F677E057606760676067605
:1049D000A8866BA76BA76BA74B9F477EE5750676EE
:1049E00006760676C98E6BA76BA76BA72A9F267ED5
:1049F000E575067606760676E98E8BA76BA76BA71C
:104A00004A9F0676057606760676267609976BA780
:104A10006BA76BA709970676057606760676267647
:104A20002A9F8BA76BA76BA7E98E0676067606767C
:104A30000676477E2A9F8BA76BA76B9FC98E05764C
:104A4000067606760676477E6B9F6BA76BA76B9FF5
:104A50008886057606760676067667866BA76BA748
:104A60006B9F6B9F6786E575067606760676888669
:104A70006BA76BA76B9F4B9F677EE57506760676E7
:104A80000676A88E6BA76BA76BA74B9F267E057635
:104A9000067606760676C98E8BA76BA76BA72A9F2C
:104AA000267605760676067606760A976BA76BA7B6
:104AB0006BA70A97067605760676067626762A97F7
:104AC0008CA76BA76BA7E996067606760676067620
:104AD000467E2A9F6BA76BA76B9FC98E06760676CC
:104AE00006760676467E6BA76BA76B9F6B9FA886A4
:104AF000057606760676067667864B9F6BA76BA7CC
:104B00006B9F8886E57506760676057688866BA7A0
:104B10006BA76BA74B9F6786E575067606760676CC
:104B2000A8866BA76BA76BA74B9F267EE5750676BD
:104B300006760676C98E6BA76BA76BA72A97267E8B
:104B4000E575067606760676E9968BA76BA76BA7C2
:104B50002A970676057606760676267E0A976BA74E
:104B60006BA76B9FE996067605760676067626761F
:104B70004A9F6BA76BA76BA7C98E0676067606764B
:104B80000676477E4B9F8BA76BA76B9FA88EE5751C
:104B9000067606760676677E6B9F6BA76BA76B9F84
:104BA000A886E575067606760676677E6BA76BA700
:104BB0006BA74B9F677E0576067606760676A88EEF
:104BC0006BA76BA7256DC87DA77DA77DA77D056514
:104BD000E464E464E564E464466DC87DA77DA77D74
:104BE000C87DE464E46404650565E4646675C87DB5
:104BF000A77DA77DA77DE464E464E4640565E464BF
:104C0000877DC87DA77DA77D8775E464E464E4643F
:104C10000565E464A77DC77DA77DA77D8775E464EE
:104C2000046504650565E464A77DA77DA77DA77D70
:104C30006675E464E464046505650565C87DA77D63
:104C4000A77DA77D466DE464E46405650465256D74
:104C5000C87DA77DA77DA77D256DE464E464056517
:104C6000E564256DC87DA77DA77DA77D0565E46406
:104C700004650565E464466DC87DA77DA77DC87D94
:104C8000E464E464E4640565E4646675C87DA77D56
:104C9000A77DA77DE464E464E4640565E464877546
:104CA000C77DA77DA77DA77DC464E4640465056511
:104CB000E4648775C77DA77DA77D8775E464046577
:104CC000E4640565E464C87DA77DA77DA77D66755E
:104CD000E4640565046505650565A77DA77DA77D79
:104CE000A77D466DE4640465E46405650565C87DDB
:104CF000A77DA77DA77D456DE46404650465056512
:104D0000256DC87DA77DA77DC87D0565E464E46445
:104D10000565E464466DC87DA77DA77DA77D056513
:104D2000E464E4640565E4646675C87DA77DA77DD9
:104D3000A77DE464E46404650565E4646675C87D84
:104D4000A77DA77DA77DC464E464E4640565E4648D
:104D5000A77DC77DA77DA77D8775E464E464E464CF
:104D60000565E464A77DA77DA77DA77D6675E464DE
:104D70000465E46405650565A77DA77DA77DA77D1E
:104D80006675E464046504650565E464C885A77D0B
:104D9000A77DC77D256DE464E46404650465256D25
:104DA000C87DA77DA77DA87D256DE464E4640565C5
:104DB000E464256DC87DA77DA77DA77D0565E464B6
:104DC00004650565E464466DC87DA77DA77DC87D43
:104DD000E464E46404650565E4646675C87DA77DE4
:104DE000A77DA77DE464E464E4640565E4648775F5
:104DF000C77DA77DA77DA77DE4640465E4640565A0
:104E0000E464A77DA77DA77DA77D8775E46404651D
:104E100004650565E464C87DA77DA77DA77D6675EB
:104E2000E464E464046505650565C87DA77DA77D28
:104E3000A77D466DE464E46404650565256DC87D61
:104E4000A77DA77D0000000000000000000000001A
:104E500000005F00000000000000070000000700E5
:104E6000000014007F0014007F00140024002A00BA
:104E70007F002A0012002300130008006400620073
:104E800036004900550022005000000005000300D4
:104E90000000000000001C00220041000000000093
:104EA000410022001C000000140008003E00080021
:104EB0001400080008003E00080008000000500030
:104EC000300000000000080008000800080008008A
:104ED00000006000600000000000200010000800DA
:104EE000040002003E005100490045003E00000061
:104EF00042007F0040000000420061005100490074
:104F000046002100410045004B003100180014000C
:104F100012007F00100027004500450045003900C1
:104F20003C004A00490049003000010071000900BE
:104F3000050003003600490049004900360006001C
:104F40004900490029001E0000003600360000001C
:104F500000000000560036000000000008001400A9
:104F6000220041000000140014001400140014007A
:104F7000000041002200140008000200010051005E
:104F80000900060032004900790041003E007E0021
:104F90001100110011007E007F0049004900490006
:104FA00036003E0041004100410022007F004100E8
:104FB000410022001C007F004900490049004100D7
:104FC0007F0009000900090001003E00410049007E
:104FD00049007A007F000800080008007F000000F8
:104FE00041007F00410000002000400041003F00E0
:104FF00001007F0008001400220041007F004000F3
:105000004000400040007F0002000C0002007F00D2
:105010007F000400080010007F003E0041004100B6
:1050200041003E007F0009000900090006003E0023
:105030004100510021005E007F0009001900290095
:1050400046004600490049004900310001000100C6
:105050007F00010001003F004000400040003F0091
:105060001F002000400020001F003F0040003800CB
:1050700040003F00630014000800140063000700B4
:105080000800700008000700610051004900450059
:10509000430000007F0041004100000002000400C6
:1050A0000800100020000000410041007F000000C7
:1050B0000400020001000200040040004000400023
:1050C0004000400000000100020004000000200039
:1050D00054005400540078007F004800440044000D
:1050E00038003800440044004400200038004400E8
:1050F000440048007F003800540054005400180059
:1051000008007E000900010002000C00520052005D
:1051100052003E007F0008000400040078000000F8
:1051200044007D00400000002000400044003D009D
:1051300000007F0010002800440000000000410033
:105140007F00400000007C0004001800040078008C
:105150007C0008000400040078003800440044008B
:10516000440038007C0014001400140008000800FB
:105170001400140018007C007C00080004000400E7
:1051800008004800540054005400200004003F0070
:105190004400400020003C004000400020007C0013
:1051A0001C002000400020001C003C00400030009B
:1051B00040003C00440028001000280044000C007F
:1051C0005000500050003C004400640054004C006B
:1051D000440000000800360041000000000000000C
:1051E0007F000000000000004100360008000000C1
:1051F0001000080008001000080078004600410078
:10520000460078000024F4008C26002000000000F6
:10521000000000000000000000000000000000008E
:10522000000000000000000000000000000000007E
:10523000000000000000000000000000000000006E
:10524000000000000000000000000000000000005E
:10525000000000000000000000000000000000004E
:0C52600000000000000000000000000042
:04000005080028C106
:00000001FF
